{
  "contractName": "AssetPriceOracle",
  "abi": [
    {
      "constant": false,
      "inputs": [
        {
          "name": "owner_",
          "type": "address"
        }
      ],
      "name": "setOwner",
      "outputs": [],
      "payable": false,
      "stateMutability": "nonpayable",
      "type": "function"
    },
    {
      "constant": false,
      "inputs": [
        {
          "name": "authority_",
          "type": "address"
        }
      ],
      "name": "setAuthority",
      "outputs": [],
      "payable": false,
      "stateMutability": "nonpayable",
      "type": "function"
    },
    {
      "constant": true,
      "inputs": [],
      "name": "owner",
      "outputs": [
        {
          "name": "",
          "type": "address"
        }
      ],
      "payable": false,
      "stateMutability": "view",
      "type": "function"
    },
    {
      "constant": true,
      "inputs": [
        {
          "name": "",
          "type": "uint128"
        },
        {
          "name": "",
          "type": "uint128"
        }
      ],
      "name": "assetPriceRecords",
      "outputs": [
        {
          "name": "price",
          "type": "uint128"
        },
        {
          "name": "isRecord",
          "type": "bool"
        }
      ],
      "payable": false,
      "stateMutability": "view",
      "type": "function"
    },
    {
      "constant": true,
      "inputs": [],
      "name": "authority",
      "outputs": [
        {
          "name": "",
          "type": "address"
        }
      ],
      "payable": false,
      "stateMutability": "view",
      "type": "function"
    },
    {
      "inputs": [],
      "payable": false,
      "stateMutability": "nonpayable",
      "type": "constructor"
    },
    {
      "payable": false,
      "stateMutability": "nonpayable",
      "type": "fallback"
    },
    {
      "anonymous": false,
      "inputs": [
        {
          "indexed": true,
          "name": "assetId",
          "type": "uint128"
        },
        {
          "indexed": true,
          "name": "blockNumber",
          "type": "uint128"
        },
        {
          "indexed": true,
          "name": "price",
          "type": "uint128"
        }
      ],
      "name": "AssetPriceRecorded",
      "type": "event"
    },
    {
      "anonymous": false,
      "inputs": [
        {
          "indexed": true,
          "name": "authority",
          "type": "address"
        }
      ],
      "name": "LogSetAuthority",
      "type": "event"
    },
    {
      "anonymous": false,
      "inputs": [
        {
          "indexed": true,
          "name": "owner",
          "type": "address"
        }
      ],
      "name": "LogSetOwner",
      "type": "event"
    },
    {
      "constant": false,
      "inputs": [
        {
          "name": "assetId",
          "type": "uint128"
        },
        {
          "name": "blockNumber",
          "type": "uint128"
        },
        {
          "name": "price",
          "type": "uint128"
        }
      ],
      "name": "recordAssetPrice",
      "outputs": [],
      "payable": false,
      "stateMutability": "nonpayable",
      "type": "function"
    },
    {
      "constant": true,
      "inputs": [
        {
          "name": "assetId",
          "type": "uint128"
        },
        {
          "name": "blockNumber",
          "type": "uint128"
        }
      ],
      "name": "getAssetPrice",
      "outputs": [
        {
          "name": "price",
          "type": "uint128"
        }
      ],
      "payable": false,
      "stateMutability": "view",
      "type": "function"
    }
  ],
  "bytecode": "0x608060405234801561001057600080fd5b5060018054600160a060020a031916339081179091556040517fce241d7ca1f669fee44b6fc00b8eba2df3bb514eed0f6f668f8f89096e81ed9490600090a26105758061005e6000396000f3006080604052600436106100825763ffffffff7c010000000000000000000000000000000000000000000000000000000060003504166313af403581146100915780634b9ce83c146100b45780637a9e5e4b146100e15780638da5cb5b14610102578063a956178d14610133578063bf7e214f1461017d578063c289adfa14610192575b34801561008e57600080fd5b50005b34801561009d57600080fd5b506100b2600160a060020a03600435166101d5565b005b3480156100c057600080fd5b506100b26001608060020a0360043581169060243581169060443516610253565b3480156100ed57600080fd5b506100b2600160a060020a036004351661030d565b34801561010e57600080fd5b50610117610387565b60408051600160a060020a039092168252519081900360200190f35b34801561013f57600080fd5b5061015a6001608060020a0360043581169060243516610396565b604080516001608060020a03909316835290151560208301528051918290030190f35b34801561018957600080fd5b506101176103d5565b34801561019e57600080fd5b506101b96001608060020a03600435811690602435166103e4565b604080516001608060020a039092168252519081900360200190f35b6101eb33600035600160e060020a031916610440565b15156101f657600080fd5b6001805473ffffffffffffffffffffffffffffffffffffffff1916600160a060020a0383811691909117918290556040519116907fce241d7ca1f669fee44b6fc00b8eba2df3bb514eed0f6f668f8f89096e81ed9490600090a250565b61026933600035600160e060020a031916610440565b151561027457600080fd5b6001608060020a038381166000818152600260209081526040808320878616808552925280832080547001000000000000000000000000000000006fffffffffffffffffffffffffffffffff1990911696881696871770ff000000000000000000000000000000001916179055519092917f37daea2dba76057e5981e6eafd7830a7ceccfe366d1d84de807eaf1e4ca8a30691a4505050565b61032333600035600160e060020a031916610440565b151561032e57600080fd5b6000805473ffffffffffffffffffffffffffffffffffffffff1916600160a060020a03838116919091178083556040519116917f1abebea81bfa2637f28358c371278fb15ede7ea8dd28d2e03b112ff6d936ada491a250565b600154600160a060020a031681565b60026020908152600092835260408084209091529082529020546001608060020a03811690700100000000000000000000000000000000900460ff1682565b600054600160a060020a031681565b6001608060020a03828116600090815260026020908152604080832093851683529290529081208054700100000000000000000000000000000000900460ff16151561042f57600080fd5b546001608060020a03169392505050565b6000600160a060020a03831630141561045b57506001610543565b600154600160a060020a038481169116141561047957506001610543565b600054600160a060020a0316151561049357506000610543565b60008054604080517fb7009613000000000000000000000000000000000000000000000000000000008152600160a060020a038781166004830152306024830152600160e060020a0319871660448301529151919092169263b700961392606480820193602093909283900390910190829087803b15801561051457600080fd5b505af1158015610528573d6000803e3d6000fd5b505050506040513d602081101561053e57600080fd5b505190505b929150505600a165627a7a72305820ed02a226c0b196377f4a9bcea11f0989940d650e7f4a8c0159f5f357907a5e380029",
  "source": "pragma solidity 0.4.24;\n\nimport \"./ds-auth/auth.sol\"; // @see https://dappsys.readthedocs.io/en/latest/ds_auth.html\n\ncontract AssetPriceOracle is DSAuth {\n    // Maximum value expressible with uint128 is 340282366920938463463374607431768211456.\n    // Using 18 decimals for price records (standard Ether precision), \n    // the possible values are between 0 and 340282366920938463463.374607431768211456.\n\n    struct AssetPriceRecord {\n        uint128 price;\n        bool isRecord;\n    }\n\n    mapping(uint128 => mapping(uint128 => AssetPriceRecord)) public assetPriceRecords;\n\n    event AssetPriceRecorded(\n        uint128 indexed assetId,\n        uint128 indexed blockNumber,\n        uint128 indexed price\n    );\n\n    constructor() public {\n    }\n    \n    function recordAssetPrice(uint128 assetId, uint128 blockNumber, uint128 price) public auth {\n        assetPriceRecords[assetId][blockNumber].price = price;\n        assetPriceRecords[assetId][blockNumber].isRecord = true;\n        emit AssetPriceRecorded(assetId, blockNumber, price);\n    }\n\n    function getAssetPrice(uint128 assetId, uint128 blockNumber) public view returns (uint128 price) {\n        AssetPriceRecord storage priceRecord = assetPriceRecords[assetId][blockNumber];\n        require(priceRecord.isRecord);\n        return priceRecord.price;\n    }\n\n    function () public {\n        // dont receive ether via fallback method (by not having 'payable' modifier on this function).\n    }\n}",
  "sourcePath": "/Users/svantejorgensen/projects/cfd-dapp/contracts/AssetPriceOracle.sol",
  "compiler": {
    "name": "solc",
    "version": "0.4.24+commit.e67f0147.Emscripten.clang"
  },
  "schemaVersion": "2.0.1",
  "updatedAt": "2018-06-26T13:35:38.628Z"
}