{
  "contractName": "AssetPriceOracle",
  "abi": [
    {
      "constant": false,
      "inputs": [
        {
          "name": "owner_",
          "type": "address"
        }
      ],
      "name": "setOwner",
      "outputs": [],
      "payable": false,
      "stateMutability": "nonpayable",
      "type": "function"
    },
    {
      "constant": false,
      "inputs": [
        {
          "name": "authority_",
          "type": "address"
        }
      ],
      "name": "setAuthority",
      "outputs": [],
      "payable": false,
      "stateMutability": "nonpayable",
      "type": "function"
    },
    {
      "constant": true,
      "inputs": [],
      "name": "owner",
      "outputs": [
        {
          "name": "",
          "type": "address"
        }
      ],
      "payable": false,
      "stateMutability": "view",
      "type": "function"
    },
    {
      "constant": true,
      "inputs": [
        {
          "name": "",
          "type": "uint128"
        },
        {
          "name": "",
          "type": "uint128"
        }
      ],
      "name": "assetPriceRecords",
      "outputs": [
        {
          "name": "price",
          "type": "uint128"
        },
        {
          "name": "isRecord",
          "type": "bool"
        }
      ],
      "payable": false,
      "stateMutability": "view",
      "type": "function"
    },
    {
      "constant": true,
      "inputs": [],
      "name": "authority",
      "outputs": [
        {
          "name": "",
          "type": "address"
        }
      ],
      "payable": false,
      "stateMutability": "view",
      "type": "function"
    },
    {
      "inputs": [],
      "payable": false,
      "stateMutability": "nonpayable",
      "type": "constructor"
    },
    {
      "payable": false,
      "stateMutability": "nonpayable",
      "type": "fallback"
    },
    {
      "anonymous": false,
      "inputs": [
        {
          "indexed": true,
          "name": "assetId",
          "type": "uint128"
        },
        {
          "indexed": true,
          "name": "blockNumber",
          "type": "uint128"
        },
        {
          "indexed": true,
          "name": "price",
          "type": "uint128"
        }
      ],
      "name": "AssetPriceRecorded",
      "type": "event"
    },
    {
      "anonymous": false,
      "inputs": [
        {
          "indexed": true,
          "name": "authority",
          "type": "address"
        }
      ],
      "name": "LogSetAuthority",
      "type": "event"
    },
    {
      "anonymous": false,
      "inputs": [
        {
          "indexed": true,
          "name": "owner",
          "type": "address"
        }
      ],
      "name": "LogSetOwner",
      "type": "event"
    },
    {
      "constant": false,
      "inputs": [
        {
          "name": "assetId",
          "type": "uint128"
        },
        {
          "name": "blockNumber",
          "type": "uint128"
        },
        {
          "name": "price",
          "type": "uint128"
        }
      ],
      "name": "recordAssetPrice",
      "outputs": [],
      "payable": false,
      "stateMutability": "nonpayable",
      "type": "function"
    },
    {
      "constant": true,
      "inputs": [
        {
          "name": "assetId",
          "type": "uint128"
        },
        {
          "name": "blockNumber",
          "type": "uint128"
        }
      ],
      "name": "getAssetPrice",
      "outputs": [
        {
          "name": "price",
          "type": "uint128"
        }
      ],
      "payable": false,
      "stateMutability": "view",
      "type": "function"
    }
  ],
  "bytecode": "0x608060405234801561001057600080fd5b5033600160006101000a81548173ffffffffffffffffffffffffffffffffffffffff021916908373ffffffffffffffffffffffffffffffffffffffff1602179055503373ffffffffffffffffffffffffffffffffffffffff167fce241d7ca1f669fee44b6fc00b8eba2df3bb514eed0f6f668f8f89096e81ed9460405160405180910390a2610b01806100a46000396000f300608060405260043610610083576000357c0100000000000000000000000000000000000000000000000000000000900463ffffffff16806313af4035146100925780634b9ce83c146100d55780637a9e5e4b1461014c5780638da5cb5b1461018f578063a956178d146101e6578063bf7e214f14610284578063c289adfa146102db575b34801561008f57600080fd5b50005b34801561009e57600080fd5b506100d3600480360381019080803573ffffffffffffffffffffffffffffffffffffffff16906020019092919050505061036e565b005b3480156100e157600080fd5b5061014a60048036038101908080356fffffffffffffffffffffffffffffffff16906020019092919080356fffffffffffffffffffffffffffffffff16906020019092919080356fffffffffffffffffffffffffffffffff169060200190929190505050610450565b005b34801561015857600080fd5b5061018d600480360381019080803573ffffffffffffffffffffffffffffffffffffffff169060200190929190505050610621565b005b34801561019b57600080fd5b506101a4610701565b604051808273ffffffffffffffffffffffffffffffffffffffff1673ffffffffffffffffffffffffffffffffffffffff16815260200191505060405180910390f35b3480156101f257600080fd5b5061023f60048036038101908080356fffffffffffffffffffffffffffffffff16906020019092919080356fffffffffffffffffffffffffffffffff169060200190929190505050610727565b60405180836fffffffffffffffffffffffffffffffff166fffffffffffffffffffffffffffffffff168152602001821515151581526020019250505060405180910390f35b34801561029057600080fd5b50610299610781565b604051808273ffffffffffffffffffffffffffffffffffffffff1673ffffffffffffffffffffffffffffffffffffffff16815260200191505060405180910390f35b3480156102e757600080fd5b5061033460048036038101908080356fffffffffffffffffffffffffffffffff16906020019092919080356fffffffffffffffffffffffffffffffff1690602001909291905050506107a6565b60405180826fffffffffffffffffffffffffffffffff166fffffffffffffffffffffffffffffffff16815260200191505060405180910390f35b61039c336000357fffffffff000000000000000000000000000000000000000000000000000000001661085e565b15156103a757600080fd5b80600160006101000a81548173ffffffffffffffffffffffffffffffffffffffff021916908373ffffffffffffffffffffffffffffffffffffffff160217905550600160009054906101000a900473ffffffffffffffffffffffffffffffffffffffff1673ffffffffffffffffffffffffffffffffffffffff167fce241d7ca1f669fee44b6fc00b8eba2df3bb514eed0f6f668f8f89096e81ed9460405160405180910390a250565b61047e336000357fffffffff000000000000000000000000000000000000000000000000000000001661085e565b151561048957600080fd5b8060026000856fffffffffffffffffffffffffffffffff166fffffffffffffffffffffffffffffffff1681526020019081526020016000206000846fffffffffffffffffffffffffffffffff166fffffffffffffffffffffffffffffffff16815260200190815260200160002060000160006101000a8154816fffffffffffffffffffffffffffffffff02191690836fffffffffffffffffffffffffffffffff160217905550600160026000856fffffffffffffffffffffffffffffffff166fffffffffffffffffffffffffffffffff1681526020019081526020016000206000846fffffffffffffffffffffffffffffffff166fffffffffffffffffffffffffffffffff16815260200190815260200160002060000160106101000a81548160ff021916908315150217905550806fffffffffffffffffffffffffffffffff16826fffffffffffffffffffffffffffffffff16846fffffffffffffffffffffffffffffffff167f37daea2dba76057e5981e6eafd7830a7ceccfe366d1d84de807eaf1e4ca8a30660405160405180910390a4505050565b61064f336000357fffffffff000000000000000000000000000000000000000000000000000000001661085e565b151561065a57600080fd5b806000806101000a81548173ffffffffffffffffffffffffffffffffffffffff021916908373ffffffffffffffffffffffffffffffffffffffff1602179055506000809054906101000a900473ffffffffffffffffffffffffffffffffffffffff1673ffffffffffffffffffffffffffffffffffffffff167f1abebea81bfa2637f28358c371278fb15ede7ea8dd28d2e03b112ff6d936ada460405160405180910390a250565b600160009054906101000a900473ffffffffffffffffffffffffffffffffffffffff1681565b6002602052816000526040600020602052806000526040600020600091509150508060000160009054906101000a90046fffffffffffffffffffffffffffffffff16908060000160109054906101000a900460ff16905082565b6000809054906101000a900473ffffffffffffffffffffffffffffffffffffffff1681565b60008060026000856fffffffffffffffffffffffffffffffff166fffffffffffffffffffffffffffffffff1681526020019081526020016000206000846fffffffffffffffffffffffffffffffff166fffffffffffffffffffffffffffffffff16815260200190815260200160002090508060000160109054906101000a900460ff16151561083457600080fd5b8060000160009054906101000a90046fffffffffffffffffffffffffffffffff1691505092915050565b60003073ffffffffffffffffffffffffffffffffffffffff168373ffffffffffffffffffffffffffffffffffffffff16141561089d5760019050610acf565b600160009054906101000a900473ffffffffffffffffffffffffffffffffffffffff1673ffffffffffffffffffffffffffffffffffffffff168373ffffffffffffffffffffffffffffffffffffffff1614156108fc5760019050610acf565b600073ffffffffffffffffffffffffffffffffffffffff166000809054906101000a900473ffffffffffffffffffffffffffffffffffffffff1673ffffffffffffffffffffffffffffffffffffffff16141561095b5760009050610acf565b6000809054906101000a900473ffffffffffffffffffffffffffffffffffffffff1673ffffffffffffffffffffffffffffffffffffffff1663b70096138430856040518463ffffffff167c0100000000000000000000000000000000000000000000000000000000028152600401808473ffffffffffffffffffffffffffffffffffffffff1673ffffffffffffffffffffffffffffffffffffffff1681526020018373ffffffffffffffffffffffffffffffffffffffff1673ffffffffffffffffffffffffffffffffffffffff168152602001827bffffffffffffffffffffffffffffffffffffffffffffffffffffffff19167bffffffffffffffffffffffffffffffffffffffffffffffffffffffff191681526020019350505050602060405180830381600087803b158015610a9157600080fd5b505af1158015610aa5573d6000803e3d6000fd5b505050506040513d6020811015610abb57600080fd5b810190808051906020019092919050505090505b929150505600a165627a7a72305820439a2d00a2e3f61e99130557c8fd3732236760519efe2784f9866de8f1f44e0b0029",
  "source": "pragma solidity 0.4.24;\n\nimport \"./ds-auth/auth.sol\"; // @see https://dappsys.readthedocs.io/en/latest/ds_auth.html\n\ncontract AssetPriceOracle is DSAuth {\n    // Maximum value expressible with uint128 is 340282366920938463463374607431768211456.\n    // Using 18 decimals for price records (standard Ether precision), \n    // the possible values are between 0 and 340282366920938463463.374607431768211456.\n\n    struct AssetPriceRecord {\n        uint128 price;\n        bool isRecord;\n    }\n\n    mapping(uint128 => mapping(uint128 => AssetPriceRecord)) public assetPriceRecords;\n\n    event AssetPriceRecorded(\n        uint128 indexed assetId,\n        uint128 indexed blockNumber,\n        uint128 indexed price\n    );\n\n    constructor() public {\n    }\n    \n    function recordAssetPrice(uint128 assetId, uint128 blockNumber, uint128 price) public auth {\n        assetPriceRecords[assetId][blockNumber].price = price;\n        assetPriceRecords[assetId][blockNumber].isRecord = true;\n        emit AssetPriceRecorded(assetId, blockNumber, price);\n    }\n\n    function getAssetPrice(uint128 assetId, uint128 blockNumber) public view returns (uint128 price) {\n        AssetPriceRecord storage priceRecord = assetPriceRecords[assetId][blockNumber];\n        require(priceRecord.isRecord);\n        return priceRecord.price;\n    }\n\n    function () public {\n        // dont receive ether via fallback method (by not having 'payable' modifier on this function).\n    }\n}",
  "sourcePath": "/Users/svantejorgensen/projects/cfd-dapp/contracts/AssetPriceOracle.sol",
  "compiler": {
    "name": "solc",
    "version": "0.4.24+commit.e67f0147.Emscripten.clang"
  },
  "schemaVersion": "2.0.0",
  "updatedAt": "2018-06-19T14:34:26.622Z"
}