{
  "contractName": "ContractForDifference",
  "abi": [
    {
      "constant": true,
      "inputs": [],
      "name": "priceOracle",
      "outputs": [
        {
          "name": "",
          "type": "address"
        }
      ],
      "payable": false,
      "stateMutability": "view",
      "type": "function"
    },
    {
      "constant": true,
      "inputs": [],
      "name": "leverage",
      "outputs": [
        {
          "name": "",
          "type": "uint128"
        }
      ],
      "payable": false,
      "stateMutability": "view",
      "type": "function"
    },
    {
      "constant": true,
      "inputs": [
        {
          "name": "",
          "type": "uint128"
        }
      ],
      "name": "contracts",
      "outputs": [
        {
          "components": [
            {
              "name": "addr",
              "type": "address"
            },
            {
              "name": "position",
              "type": "uint8"
            },
            {
              "name": "withdrawBalance",
              "type": "uint128"
            }
          ],
          "name": "maker",
          "type": "tuple"
        },
        {
          "components": [
            {
              "name": "addr",
              "type": "address"
            },
            {
              "name": "position",
              "type": "uint8"
            },
            {
              "name": "withdrawBalance",
              "type": "uint128"
            }
          ],
          "name": "taker",
          "type": "tuple"
        },
        {
          "name": "assetId",
          "type": "uint128"
        },
        {
          "name": "amount",
          "type": "uint128"
        },
        {
          "name": "contractStartBlock",
          "type": "uint128"
        },
        {
          "name": "contractEndBlock",
          "type": "uint128"
        },
        {
          "name": "isTaken",
          "type": "bool"
        },
        {
          "name": "isSettled",
          "type": "bool"
        },
        {
          "name": "isRefunded",
          "type": "bool"
        }
      ],
      "payable": false,
      "stateMutability": "view",
      "type": "function"
    },
    {
      "constant": true,
      "inputs": [],
      "name": "numberOfContracts",
      "outputs": [
        {
          "name": "",
          "type": "uint128"
        }
      ],
      "payable": false,
      "stateMutability": "view",
      "type": "function"
    },
    {
      "inputs": [
        {
          "name": "priceOracleAddress",
          "type": "address"
        }
      ],
      "payable": false,
      "stateMutability": "nonpayable",
      "type": "constructor"
    },
    {
      "payable": false,
      "stateMutability": "nonpayable",
      "type": "fallback"
    },
    {
      "anonymous": false,
      "inputs": [
        {
          "indexed": true,
          "name": "cfdId",
          "type": "uint128"
        },
        {
          "indexed": true,
          "name": "makerAddress",
          "type": "address"
        },
        {
          "indexed": true,
          "name": "makerPosition",
          "type": "uint8"
        },
        {
          "indexed": false,
          "name": "assetId",
          "type": "uint128"
        },
        {
          "indexed": false,
          "name": "amount",
          "type": "uint128"
        },
        {
          "indexed": false,
          "name": "contractEndBlock",
          "type": "uint128"
        }
      ],
      "name": "LogMakeCfd",
      "type": "event"
    },
    {
      "anonymous": false,
      "inputs": [
        {
          "indexed": true,
          "name": "cfdId",
          "type": "uint128"
        },
        {
          "indexed": true,
          "name": "makerAddress",
          "type": "address"
        },
        {
          "indexed": false,
          "name": "makerPosition",
          "type": "uint8"
        },
        {
          "indexed": true,
          "name": "takerAddress",
          "type": "address"
        },
        {
          "indexed": false,
          "name": "takerPosition",
          "type": "uint8"
        },
        {
          "indexed": false,
          "name": "assetId",
          "type": "uint128"
        },
        {
          "indexed": false,
          "name": "amount",
          "type": "uint128"
        },
        {
          "indexed": false,
          "name": "contractStartBlock",
          "type": "uint128"
        },
        {
          "indexed": false,
          "name": "contractEndBlock",
          "type": "uint128"
        }
      ],
      "name": "LogTakeCfd",
      "type": "event"
    },
    {
      "anonymous": false,
      "inputs": [
        {
          "indexed": true,
          "name": "cfdId",
          "type": "uint128"
        },
        {
          "indexed": true,
          "name": "makerAddress",
          "type": "address"
        },
        {
          "indexed": true,
          "name": "takerAddress",
          "type": "address"
        },
        {
          "indexed": false,
          "name": "amount",
          "type": "uint128"
        },
        {
          "indexed": false,
          "name": "startPrice",
          "type": "uint128"
        },
        {
          "indexed": false,
          "name": "endPrice",
          "type": "uint128"
        },
        {
          "indexed": false,
          "name": "makerSettlement",
          "type": "uint128"
        },
        {
          "indexed": false,
          "name": "takerSettlement",
          "type": "uint128"
        }
      ],
      "name": "LogCfdSettled",
      "type": "event"
    },
    {
      "anonymous": false,
      "inputs": [
        {
          "indexed": true,
          "name": "cfdId",
          "type": "uint128"
        },
        {
          "indexed": true,
          "name": "makerAddress",
          "type": "address"
        },
        {
          "indexed": false,
          "name": "amount",
          "type": "uint128"
        }
      ],
      "name": "LogCfdRefunded",
      "type": "event"
    },
    {
      "anonymous": false,
      "inputs": [
        {
          "indexed": true,
          "name": "cfdId",
          "type": "uint128"
        },
        {
          "indexed": true,
          "name": "withdrawalAddress",
          "type": "address"
        },
        {
          "indexed": false,
          "name": "amount",
          "type": "uint128"
        }
      ],
      "name": "LogWithdrawal",
      "type": "event"
    },
    {
      "constant": false,
      "inputs": [
        {
          "name": "makerAddress",
          "type": "address"
        },
        {
          "name": "assetId",
          "type": "uint128"
        },
        {
          "name": "makerPosition",
          "type": "uint8"
        },
        {
          "name": "contractEndBlock",
          "type": "uint128"
        }
      ],
      "name": "makeCfd",
      "outputs": [
        {
          "name": "",
          "type": "uint128"
        }
      ],
      "payable": true,
      "stateMutability": "payable",
      "type": "function"
    },
    {
      "constant": true,
      "inputs": [
        {
          "name": "cfdId",
          "type": "uint128"
        }
      ],
      "name": "getCfd",
      "outputs": [
        {
          "name": "makerAddress",
          "type": "address"
        },
        {
          "name": "makerPosition",
          "type": "uint8"
        },
        {
          "name": "takerAddress",
          "type": "address"
        },
        {
          "name": "takerPosition",
          "type": "uint8"
        },
        {
          "name": "assetId",
          "type": "uint128"
        },
        {
          "name": "amount",
          "type": "uint128"
        },
        {
          "name": "startTime",
          "type": "uint128"
        },
        {
          "name": "endTime",
          "type": "uint128"
        },
        {
          "name": "isTaken",
          "type": "bool"
        },
        {
          "name": "isSettled",
          "type": "bool"
        },
        {
          "name": "isRefunded",
          "type": "bool"
        }
      ],
      "payable": false,
      "stateMutability": "view",
      "type": "function"
    },
    {
      "constant": false,
      "inputs": [
        {
          "name": "cfdId",
          "type": "uint128"
        },
        {
          "name": "takerAddress",
          "type": "address"
        }
      ],
      "name": "takeCfd",
      "outputs": [
        {
          "name": "success",
          "type": "bool"
        }
      ],
      "payable": true,
      "stateMutability": "payable",
      "type": "function"
    },
    {
      "constant": false,
      "inputs": [
        {
          "name": "cfdId",
          "type": "uint128"
        }
      ],
      "name": "settleAndWithdrawCfd",
      "outputs": [],
      "payable": false,
      "stateMutability": "nonpayable",
      "type": "function"
    },
    {
      "constant": false,
      "inputs": [
        {
          "name": "cfdId",
          "type": "uint128"
        }
      ],
      "name": "settleCfd",
      "outputs": [
        {
          "name": "success",
          "type": "bool"
        }
      ],
      "payable": false,
      "stateMutability": "nonpayable",
      "type": "function"
    },
    {
      "constant": false,
      "inputs": [
        {
          "name": "cfdId",
          "type": "uint128"
        },
        {
          "name": "partyAddress",
          "type": "address"
        }
      ],
      "name": "withdraw",
      "outputs": [],
      "payable": false,
      "stateMutability": "nonpayable",
      "type": "function"
    },
    {
      "constant": true,
      "inputs": [
        {
          "name": "amountUInt",
          "type": "uint128"
        },
        {
          "name": "entryPriceUInt",
          "type": "uint128"
        },
        {
          "name": "exitPriceUInt",
          "type": "uint128"
        },
        {
          "name": "position",
          "type": "uint8"
        }
      ],
      "name": "getSettlementAmount",
      "outputs": [
        {
          "name": "",
          "type": "uint128"
        }
      ],
      "payable": false,
      "stateMutability": "view",
      "type": "function"
    },
    {
      "constant": false,
      "inputs": [
        {
          "name": "cfdId",
          "type": "uint128"
        }
      ],
      "name": "refundCfd",
      "outputs": [
        {
          "name": "success",
          "type": "bool"
        }
      ],
      "payable": false,
      "stateMutability": "nonpayable",
      "type": "function"
    }
  ],
  "bytecode": "0x608060405260016000806101000a8154816fffffffffffffffffffffffffffffffff02191690836fffffffffffffffffffffffffffffffff16021790555034801561004957600080fd5b5060405160208061291e8339810180604052810190808051906020019092919050505080600160006101000a81548173ffffffffffffffffffffffffffffffffffffffff021916908373ffffffffffffffffffffffffffffffffffffffff16021790555050612861806100bd6000396000f3006080604052600436106100ba576000357c0100000000000000000000000000000000000000000000000000000000900463ffffffff16806319f2433a146100c95780631d9b07831461018557806325476ed8146101e45780632630c12f146102235780632c86d98e1461027a5780637193b1e4146102c957806377a1e5ce14610320578063bf85cc27146103d3578063c2a926bd1461042a578063c435d68e14610551578063c7a37657146105a0578063e86bf26714610749575b3480156100c657600080fd5b50005b3480156100d557600080fd5b5061014b60048036038101908080356fffffffffffffffffffffffffffffffff16906020019092919080356fffffffffffffffffffffffffffffffff16906020019092919080356fffffffffffffffffffffffffffffffff169060200190929190803560ff1690602001909291905050506107b3565b60405180826fffffffffffffffffffffffffffffffff166fffffffffffffffffffffffffffffffff16815260200191505060405180910390f35b34801561019157600080fd5b506101e260048036038101908080356fffffffffffffffffffffffffffffffff169060200190929190803573ffffffffffffffffffffffffffffffffffffffff1690602001909291905050506109dd565b005b3480156101f057600080fd5b5061022160048036038101908080356fffffffffffffffffffffffffffffffff169060200190929190505050610c52565b005b34801561022f57600080fd5b50610238610d38565b604051808273ffffffffffffffffffffffffffffffffffffffff1673ffffffffffffffffffffffffffffffffffffffff16815260200191505060405180910390f35b34801561028657600080fd5b5061028f610d5e565b60405180826fffffffffffffffffffffffffffffffff166fffffffffffffffffffffffffffffffff16815260200191505060405180910390f35b3480156102d557600080fd5b5061030660048036038101908080356fffffffffffffffffffffffffffffffff169060200190929190505050610d7f565b604051808215151515815260200191505060405180910390f35b610399600480360381019080803573ffffffffffffffffffffffffffffffffffffffff16906020019092919080356fffffffffffffffffffffffffffffffff169060200190929190803560ff16906020019092919080356fffffffffffffffffffffffffffffffff169060200190929190505050610feb565b60405180826fffffffffffffffffffffffffffffffff166fffffffffffffffffffffffffffffffff16815260200191505060405180910390f35b3480156103df57600080fd5b5061041060048036038101908080356fffffffffffffffffffffffffffffffff169060200190929190505050611606565b604051808215151515815260200191505060405180910390f35b34801561043657600080fd5b5061046760048036038101908080356fffffffffffffffffffffffffffffffff169060200190929190505050611d47565b604051808a8152602001898152602001886fffffffffffffffffffffffffffffffff166fffffffffffffffffffffffffffffffff168152602001876fffffffffffffffffffffffffffffffff166fffffffffffffffffffffffffffffffff168152602001866fffffffffffffffffffffffffffffffff166fffffffffffffffffffffffffffffffff168152602001856fffffffffffffffffffffffffffffffff166fffffffffffffffffffffffffffffffff168152602001841515151581526020018315151515815260200182151515158152602001995050505050505050505060405180910390f35b34801561055d57600080fd5b50610566611fdc565b60405180826fffffffffffffffffffffffffffffffff166fffffffffffffffffffffffffffffffff16815260200191505060405180910390f35b3480156105ac57600080fd5b506105dd60048036038101908080356fffffffffffffffffffffffffffffffff169060200190929190505050611ffe565b604051808c73ffffffffffffffffffffffffffffffffffffffff1673ffffffffffffffffffffffffffffffffffffffff1681526020018b600181111561061f57fe5b60ff1681526020018a73ffffffffffffffffffffffffffffffffffffffff1673ffffffffffffffffffffffffffffffffffffffff16815260200189600181111561066557fe5b60ff168152602001886fffffffffffffffffffffffffffffffff166fffffffffffffffffffffffffffffffff168152602001876fffffffffffffffffffffffffffffffff166fffffffffffffffffffffffffffffffff168152602001866fffffffffffffffffffffffffffffffff166fffffffffffffffffffffffffffffffff168152602001856fffffffffffffffffffffffffffffffff166fffffffffffffffffffffffffffffffff1681526020018415151515815260200183151515158152602001821515151581526020019b50505050505050505050505060405180910390f35b61079960048036038101908080356fffffffffffffffffffffffffffffffff169060200190929190803573ffffffffffffffffffffffffffffffffffffffff1690602001909291905050506121a3565b604051808215151515815260200191505060405180910390f35b600080600080600080600060018111156107c957fe5b8760018111156107d557fe5b14806107f657506001808111156107e857fe5b8760018111156107f457fe5b145b151561080157600080fd5b876fffffffffffffffffffffffffffffffff16896fffffffffffffffffffffffffffffffff161415610835578995506109d0565b6000896fffffffffffffffffffffffffffffffff1614801561086957506000886fffffffffffffffffffffffffffffffff16115b1561089f576000600181111561087b57fe5b87600181111561088757fe5b14610893576000610898565b60028a025b95506109d0565b886fffffffffffffffffffffffffffffffff169450876fffffffffffffffffffffffffffffffff169350896fffffffffffffffffffffffffffffffff169250600060018111156108eb57fe5b8760018111156108f757fe5b146109145761090f848661271e90919063ffffffff16565b610928565b610927858561271e90919063ffffffff16565b5b91506109a2610993866109856000809054906101000a90046fffffffffffffffffffffffffffffffff166fffffffffffffffffffffffffffffffff16610977888861275f90919063ffffffff16565b61275f90919063ffffffff16565b61279a90919063ffffffff16565b846127f490919063ffffffff16565b905060008112156109b657600095506109d0565b600283028113156109cc5760028a0295506109d0565b8095505b5050505050949350505050565b600080600060026000866fffffffffffffffffffffffffffffffff166fffffffffffffffffffffffffffffffff16815260200190815260200160002092508260000160000160009054906101000a900473ffffffffffffffffffffffffffffffffffffffff1673ffffffffffffffffffffffffffffffffffffffff168473ffffffffffffffffffffffffffffffffffffffff1614610a7e5782600201610a83565b826000015b915060008260010160009054906101000a90046fffffffffffffffffffffffffffffffff166fffffffffffffffffffffffffffffffff16111515610ac657600080fd5b8160010160009054906101000a90046fffffffffffffffffffffffffffffffff16905060008260010160006101000a8154816fffffffffffffffffffffffffffffffff02191690836fffffffffffffffffffffffffffffffff1602179055508160000160009054906101000a900473ffffffffffffffffffffffffffffffffffffffff1673ffffffffffffffffffffffffffffffffffffffff166108fc826fffffffffffffffffffffffffffffffff169081150290604051600060405180830381858888f19350505050158015610ba1573d6000803e3d6000fd5b508160000160009054906101000a900473ffffffffffffffffffffffffffffffffffffffff1673ffffffffffffffffffffffffffffffffffffffff16856fffffffffffffffffffffffffffffffff167f47c4670fbd2d0f6a4f8570df20a107241367325b2d1a1040efa3907260c4b78f8360405180826fffffffffffffffffffffffffffffffff166fffffffffffffffffffffffffffffffff16815260200191505060405180910390a35050505050565b60008060026000846fffffffffffffffffffffffffffffffff166fffffffffffffffffffffffffffffffff16815260200190815260200160002060000160000160009054906101000a900473ffffffffffffffffffffffffffffffffffffffff16915060026000846fffffffffffffffffffffffffffffffff166fffffffffffffffffffffffffffffffff16815260200190815260200160002060020160000160009054906101000a900473ffffffffffffffffffffffffffffffffffffffff169050610d1e83611606565b50610d2983836109dd565b610d3383826109dd565b505050565b600160009054906101000a900473ffffffffffffffffffffffffffffffffffffffff1681565b6000809054906101000a90046fffffffffffffffffffffffffffffffff1681565b60008060026000846fffffffffffffffffffffffffffffffff166fffffffffffffffffffffffffffffffff16815260200190815260200160002090508060060160019054906101000a900460ff16151515610dd957600080fd5b8060060160009054906101000a900460ff16151515610df757600080fd5b3373ffffffffffffffffffffffffffffffffffffffff168160000160000160009054906101000a900473ffffffffffffffffffffffffffffffffffffffff1673ffffffffffffffffffffffffffffffffffffffff16141515610e5857600080fd5b8060000160000160009054906101000a900473ffffffffffffffffffffffffffffffffffffffff1673ffffffffffffffffffffffffffffffffffffffff166108fc8260040160109054906101000a90046fffffffffffffffffffffffffffffffff166fffffffffffffffffffffffffffffffff169081150290604051600060405180830381858888f19350505050158015610ef7573d6000803e3d6000fd5b5060018160060160026101000a81548160ff0219169083151502179055508060000160000160009054906101000a900473ffffffffffffffffffffffffffffffffffffffff1673ffffffffffffffffffffffffffffffffffffffff16836fffffffffffffffffffffffffffffffff167fb3c82f75b29bc253ce2bceed73a469995f7d1f6bcee3633ebc52fe83ca5d69758360040160109054906101000a90046fffffffffffffffffffffffffffffffff1660405180826fffffffffffffffffffffffffffffffff166fffffffffffffffffffffffffffffffff16815260200191505060405180910390a36001915050919050565b60008043836fffffffffffffffffffffffffffffffff1611151561100e57600080fd5b60003411151561101d57600080fd5b600073ffffffffffffffffffffffffffffffffffffffff168673ffffffffffffffffffffffffffffffffffffffff161415151561105957600080fd5b600360009054906101000a90046fffffffffffffffffffffffffffffffff1690506060604051908101604052808773ffffffffffffffffffffffffffffffffffffffff1681526020018560018111156110ae57fe5b815260200160006fffffffffffffffffffffffffffffffff1681525060026000836fffffffffffffffffffffffffffffffff166fffffffffffffffffffffffffffffffff16815260200190815260200160002060000160008201518160000160006101000a81548173ffffffffffffffffffffffffffffffffffffffff021916908373ffffffffffffffffffffffffffffffffffffffff16021790555060208201518160000160146101000a81548160ff0219169083600181111561116f57fe5b021790555060408201518160010160006101000a8154816fffffffffffffffffffffffffffffffff02191690836fffffffffffffffffffffffffffffffff1602179055509050508460026000836fffffffffffffffffffffffffffffffff166fffffffffffffffffffffffffffffffff16815260200190815260200160002060040160006101000a8154816fffffffffffffffffffffffffffffffff02191690836fffffffffffffffffffffffffffffffff1602179055503460026000836fffffffffffffffffffffffffffffffff166fffffffffffffffffffffffffffffffff16815260200190815260200160002060040160106101000a8154816fffffffffffffffffffffffffffffffff02191690836fffffffffffffffffffffffffffffffff1602179055508260026000836fffffffffffffffffffffffffffffffff166fffffffffffffffffffffffffffffffff16815260200190815260200160002060050160106101000a8154816fffffffffffffffffffffffffffffffff02191690836fffffffffffffffffffffffffffffffff1602179055506003600081819054906101000a90046fffffffffffffffffffffffffffffffff168092919060010191906101000a8154816fffffffffffffffffffffffffffffffff02191690836fffffffffffffffffffffffffffffffff1602179055505060026000826fffffffffffffffffffffffffffffffff166fffffffffffffffffffffffffffffffff16815260200190815260200160002060000160000160149054906101000a900460ff1660018111156113be57fe5b60026000836fffffffffffffffffffffffffffffffff166fffffffffffffffffffffffffffffffff16815260200190815260200160002060000160000160009054906101000a900473ffffffffffffffffffffffffffffffffffffffff1673ffffffffffffffffffffffffffffffffffffffff16826fffffffffffffffffffffffffffffffff167ff856f785bff6e41ad784260baa2a846a4275c7ddaee2fc7d94ab0de7b7aa1d5460026000866fffffffffffffffffffffffffffffffff166fffffffffffffffffffffffffffffffff16815260200190815260200160002060040160009054906101000a90046fffffffffffffffffffffffffffffffff1660026000876fffffffffffffffffffffffffffffffff166fffffffffffffffffffffffffffffffff16815260200190815260200160002060040160109054906101000a90046fffffffffffffffffffffffffffffffff1660026000886fffffffffffffffffffffffffffffffff166fffffffffffffffffffffffffffffffff16815260200190815260200160002060050160109054906101000a90046fffffffffffffffffffffffffffffffff1660405180846fffffffffffffffffffffffffffffffff166fffffffffffffffffffffffffffffffff168152602001836fffffffffffffffffffffffffffffffff166fffffffffffffffffffffffffffffffff168152602001826fffffffffffffffffffffffffffffffff166fffffffffffffffffffffffffffffffff168152602001935050505060405180910390a480915050949350505050565b600080600080600080600060026000896fffffffffffffffffffffffffffffffff166fffffffffffffffffffffffffffffffff1681526020019081526020016000209550438660050160109054906101000a90046fffffffffffffffffffffffffffffffff166fffffffffffffffffffffffffffffffff161115151561168b57600080fd5b8560060160019054906101000a900460ff161515156116a957600080fd5b8560060160029054906101000a900460ff161515156116c757600080fd5b8560060160009054906101000a900460ff1615156116e457600080fd5b600073ffffffffffffffffffffffffffffffffffffffff168660000160000160009054906101000a900473ffffffffffffffffffffffffffffffffffffffff1673ffffffffffffffffffffffffffffffffffffffff161415151561174757600080fd5b600073ffffffffffffffffffffffffffffffffffffffff168660020160000160009054906101000a900473ffffffffffffffffffffffffffffffffffffffff1673ffffffffffffffffffffffffffffffffffffffff16141515156117aa57600080fd5b8560040160109054906101000a90046fffffffffffffffffffffffffffffffff169450600160009054906101000a900473ffffffffffffffffffffffffffffffffffffffff1673ffffffffffffffffffffffffffffffffffffffff1663c289adfa8760040160009054906101000a90046fffffffffffffffffffffffffffffffff168860050160009054906101000a90046fffffffffffffffffffffffffffffffff166040518363ffffffff167c010000000000000000000000000000000000000000000000000000000002815260040180836fffffffffffffffffffffffffffffffff166fffffffffffffffffffffffffffffffff168152602001826fffffffffffffffffffffffffffffffff166fffffffffffffffffffffffffffffffff16815260200192505050602060405180830381600087803b1580156118ee57600080fd5b505af1158015611902573d6000803e3d6000fd5b505050506040513d602081101561191857600080fd5b81019080805190602001909291905050509350600160009054906101000a900473ffffffffffffffffffffffffffffffffffffffff1673ffffffffffffffffffffffffffffffffffffffff1663c289adfa8760040160009054906101000a90046fffffffffffffffffffffffffffffffff168860050160109054906101000a90046fffffffffffffffffffffffffffffffff166040518363ffffffff167c010000000000000000000000000000000000000000000000000000000002815260040180836fffffffffffffffffffffffffffffffff166fffffffffffffffffffffffffffffffff168152602001826fffffffffffffffffffffffffffffffff166fffffffffffffffffffffffffffffffff16815260200192505050602060405180830381600087803b158015611a4c57600080fd5b505af1158015611a60573d6000803e3d6000fd5b505050506040513d6020811015611a7657600080fd5b81019080805190602001909291905050509250611aa98585858960000160000160149054906101000a900460ff166107b3565b91506000826fffffffffffffffffffffffffffffffff161115611b0557818660000160010160006101000a8154816fffffffffffffffffffffffffffffffff02191690836fffffffffffffffffffffffffffffffff1602179055505b611b258585858960020160000160149054906101000a900460ff166107b3565b90506000816fffffffffffffffffffffffffffffffff161115611b8157808660020160010160006101000a8154816fffffffffffffffffffffffffffffffff02191690836fffffffffffffffffffffffffffffffff1602179055505b60018660060160016101000a81548160ff0219169083151502179055508560020160000160009054906101000a900473ffffffffffffffffffffffffffffffffffffffff1673ffffffffffffffffffffffffffffffffffffffff168660000160000160009054906101000a900473ffffffffffffffffffffffffffffffffffffffff1673ffffffffffffffffffffffffffffffffffffffff16896fffffffffffffffffffffffffffffffff167f73c87236e68a7ce8f26b10e6acb08e9ce4b67067e0255efeee93a69969c12391888888888860405180866fffffffffffffffffffffffffffffffff166fffffffffffffffffffffffffffffffff168152602001856fffffffffffffffffffffffffffffffff166fffffffffffffffffffffffffffffffff168152602001846fffffffffffffffffffffffffffffffff166fffffffffffffffffffffffffffffffff168152602001836fffffffffffffffffffffffffffffffff166fffffffffffffffffffffffffffffffff168152602001826fffffffffffffffffffffffffffffffff166fffffffffffffffffffffffffffffffff1681526020019550505050505060405180910390a460019650505050505050919050565b600260205280600052604060002060009150905080600001606060405190810160405290816000820160009054906101000a900473ffffffffffffffffffffffffffffffffffffffff1673ffffffffffffffffffffffffffffffffffffffff1673ffffffffffffffffffffffffffffffffffffffff1681526020016000820160149054906101000a900460ff166001811115611ddf57fe5b6001811115611dea57fe5b81526020016001820160009054906101000a90046fffffffffffffffffffffffffffffffff166fffffffffffffffffffffffffffffffff166fffffffffffffffffffffffffffffffff16815250509080600201606060405190810160405290816000820160009054906101000a900473ffffffffffffffffffffffffffffffffffffffff1673ffffffffffffffffffffffffffffffffffffffff1673ffffffffffffffffffffffffffffffffffffffff1681526020016000820160149054906101000a900460ff166001811115611ebd57fe5b6001811115611ec857fe5b81526020016001820160009054906101000a90046fffffffffffffffffffffffffffffffff166fffffffffffffffffffffffffffffffff166fffffffffffffffffffffffffffffffff1681525050908060040160009054906101000a90046fffffffffffffffffffffffffffffffff16908060040160109054906101000a90046fffffffffffffffffffffffffffffffff16908060050160009054906101000a90046fffffffffffffffffffffffffffffffff16908060050160109054906101000a90046fffffffffffffffffffffffffffffffff16908060060160009054906101000a900460ff16908060060160019054906101000a900460ff16908060060160029054906101000a900460ff16905089565b600360009054906101000a90046fffffffffffffffffffffffffffffffff1681565b600080600080600080600080600080600080600260008e6fffffffffffffffffffffffffffffffff166fffffffffffffffffffffffffffffffff16815260200190815260200160002090508060000160000160009054906101000a900473ffffffffffffffffffffffffffffffffffffffff168160000160000160149054906101000a900460ff168260020160000160009054906101000a900473ffffffffffffffffffffffffffffffffffffffff168360020160000160149054906101000a900460ff168460040160009054906101000a90046fffffffffffffffffffffffffffffffff168560040160109054906101000a90046fffffffffffffffffffffffffffffffff168660050160009054906101000a90046fffffffffffffffffffffffffffffffff168760050160109054906101000a90046fffffffffffffffffffffffffffffffff168860060160009054906101000a900460ff168960060160019054906101000a900460ff168a60060160029054906101000a900460ff169b509b509b509b509b509b509b509b509b509b509b505091939597999b90929496989a50565b60008060026000856fffffffffffffffffffffffffffffffff166fffffffffffffffffffffffffffffffff1681526020019081526020016000209050600115158160060160009054906101000a900460ff1615151415151561220457600080fd5b600115158160060160019054906101000a900460ff1615151415151561222957600080fd5b600115158160060160029054906101000a900460ff1615151415151561224e57600080fd5b600073ffffffffffffffffffffffffffffffffffffffff168160000160000160009054906101000a900473ffffffffffffffffffffffffffffffffffffffff1673ffffffffffffffffffffffffffffffffffffffff16141515156122b157600080fd5b600073ffffffffffffffffffffffffffffffffffffffff168160020160000160009054906101000a900473ffffffffffffffffffffffffffffffffffffffff1673ffffffffffffffffffffffffffffffffffffffff1614151561231357600080fd5b8060040160109054906101000a90046fffffffffffffffffffffffffffffffff166fffffffffffffffffffffffffffffffff163414151561235357600080fd5b600073ffffffffffffffffffffffffffffffffffffffff168373ffffffffffffffffffffffffffffffffffffffff161415151561238f57600080fd5b8060050160109054906101000a90046fffffffffffffffffffffffffffffffff166fffffffffffffffffffffffffffffffff1643111515156123d057600080fd5b828160020160000160006101000a81548173ffffffffffffffffffffffffffffffffffffffff021916908373ffffffffffffffffffffffffffffffffffffffff1602179055506000600181111561242357fe5b8160000160000160149054906101000a900460ff16600181111561244357fe5b1461244f576000612452565b60015b8160020160000160146101000a81548160ff0219169083600181111561247457fe5b0217905550438160050160006101000a8154816fffffffffffffffffffffffffffffffff02191690836fffffffffffffffffffffffffffffffff16021790555060018160060160006101000a81548160ff0219169083151502179055508060020160000160009054906101000a900473ffffffffffffffffffffffffffffffffffffffff1673ffffffffffffffffffffffffffffffffffffffff168160000160000160009054906101000a900473ffffffffffffffffffffffffffffffffffffffff1673ffffffffffffffffffffffffffffffffffffffff16856fffffffffffffffffffffffffffffffff167f1b7c442c83e115e252e37688061982359c47114bd778470e3b755c9cc95781208460000160000160149054906101000a900460ff168560020160000160149054906101000a900460ff168660040160009054906101000a90046fffffffffffffffffffffffffffffffff168760040160109054906101000a90046fffffffffffffffffffffffffffffffff168860050160009054906101000a90046fffffffffffffffffffffffffffffffff168960050160109054906101000a90046fffffffffffffffffffffffffffffffff166040518087600181111561263f57fe5b60ff16815260200186600181111561265357fe5b60ff168152602001856fffffffffffffffffffffffffffffffff166fffffffffffffffffffffffffffffffff168152602001846fffffffffffffffffffffffffffffffff166fffffffffffffffffffffffffffffffff168152602001836fffffffffffffffffffffffffffffffff166fffffffffffffffffffffffffffffffff168152602001826fffffffffffffffffffffffffffffffff166fffffffffffffffffffffffffffffffff168152602001965050505050505060405180910390a4600191505092915050565b6000808284039050600083121580156127375750838113155b8061274d575060008312801561274c57508381135b5b151561275557fe5b8091505092915050565b60008060008414156127745760009150612793565b828402905082848281151561278557fe5b0514151561278f57fe5b8091505b5092915050565b60008060ff60019060020a02905080841415806127d757507fffffffffffffffffffffffffffffffffffffffffffffffffffffffffffffffff8314155b15156127df57fe5b82848115156127ea57fe5b0591505092915050565b60008082840190506000831215801561280d5750838112155b80612823575060008312801561282257508381125b5b151561282b57fe5b80915050929150505600a165627a7a72305820ed6871dd13e62be14fc090d8f2b098bb1a159041b5e0017fb1eea83b2aceaeb70029",
  "source": "pragma solidity 0.4.24;\n\nimport \"./AssetPriceOracle.sol\";\nimport \"./lib/SafeMath.sol\";\n\ncontract ContractForDifference {\n    using SafeMath for int256;\n\n    enum Position { Long, Short }\n    \n    /**\n     * A party to the contract. Either the maker or the taker.\n     */\n    struct Party {\n        address addr;\n        Position position;\n        uint128 withdrawBalance; // Amount the Party can withdraw, as a result of settled contract.\n    }\n    \n    struct Cfd {\n        Party maker;\n        Party taker;\n\n        uint128 assetId;\n        uint128 amount; // in Wei.\n        uint128 contractStartBlock; // Block number\n        uint128 contractEndBlock; // Block number\n\n        // CFD state variables\n        bool isTaken;\n        bool isSettled;\n        bool isRefunded;\n    }\n\n    uint128 public leverage = 1; // Global leverage of the CFD contract.\n    AssetPriceOracle public priceOracle;\n\n    mapping(uint128 => Cfd) public contracts;\n    uint128                 public numberOfContracts;\n\n    event LogMakeCfd (\n    uint128 indexed cfdId, \n    address indexed makerAddress, \n    Position indexed makerPosition,\n    uint128 assetId,\n    uint128 amount,\n    uint128 contractEndBlock);\n\n    event LogTakeCfd (\n    uint128 indexed cfdId,\n    address indexed makerAddress,\n    Position makerPosition,\n    address indexed takerAddress,\n    Position takerPosition,\n    uint128 assetId,\n    uint128 amount,\n    uint128 contractStartBlock,\n    uint128 contractEndBlock);\n\n    event LogCfdSettled (\n    uint128 indexed cfdId,\n    address indexed makerAddress,\n    address indexed takerAddress,\n    uint128 amount,\n    uint128 startPrice,\n    uint128 endPrice,\n    uint128 makerSettlement,\n    uint128 takerSettlement);\n\n    event LogCfdRefunded (\n    uint128 indexed cfdId,\n    address indexed makerAddress,\n    uint128 amount);\n\n    event LogWithdrawal (\n    uint128 indexed cfdId,\n    address indexed withdrawalAddress,\n    uint128 amount);\n\n    // event Debug (\n    //     string description,\n    //     uint128 uintValue,\n    //     int128 intValue\n    // );\n\n    constructor(address priceOracleAddress) public {\n        priceOracle = AssetPriceOracle(priceOracleAddress);\n    }\n\n    function makeCfd(\n        address makerAddress,\n        uint128 assetId,\n        Position makerPosition,\n        uint128 contractEndBlock\n        )\n        public\n        payable\n        returns (uint128)\n    {\n        require(contractEndBlock > block.number); // Contract end block must be after current block.\n        require(msg.value > 0); // Contract Wei amount must be more than zero - contracts for zero Wei does not make sense.\n        require(makerAddress != address(0)); // Maker must provide a non-zero address.\n        \n        uint128 contractId = numberOfContracts;\n\n        contracts[contractId].maker = Party(makerAddress, makerPosition, 0);\n        contracts[contractId].assetId = assetId;\n        contracts[contractId].amount = uint128(msg.value);\n        contracts[contractId].contractEndBlock = contractEndBlock;\n        numberOfContracts++;\n        \n        emit LogMakeCfd(\n            contractId,\n            contracts[contractId].maker.addr,\n            contracts[contractId].maker.position,\n            contracts[contractId].assetId,\n            contracts[contractId].amount,\n            contracts[contractId].contractEndBlock\n        );\n\n        return contractId;\n    }\n\n    function getCfd(\n        uint128 cfdId\n        ) \n        public \n        view \n        returns (address makerAddress, Position makerPosition, address takerAddress, Position takerPosition, uint128 assetId, uint128 amount, uint128 startTime, uint128 endTime, bool isTaken, bool isSettled, bool isRefunded)\n        {\n        Cfd storage cfd = contracts[cfdId];\n        return (\n            cfd.maker.addr,\n            cfd.maker.position,\n            cfd.taker.addr,\n            cfd.taker.position,\n            cfd.assetId,\n            cfd.amount,\n            cfd.contractStartBlock,\n            cfd.contractEndBlock,\n            cfd.isTaken,\n            cfd.isSettled,\n            cfd.isRefunded\n        );\n    }\n\n    function takeCfd(\n        uint128 cfdId, \n        address takerAddress\n        ) \n        public\n        payable\n        returns (bool success) {\n        Cfd storage cfd = contracts[cfdId];\n        \n        require(cfd.isTaken != true);                  // Contract must not be taken.\n        require(cfd.isSettled != true);                // Contract must not be settled.\n        require(cfd.isRefunded != true);               // Contract must not be refunded.\n        require(cfd.maker.addr != address(0));         // Contract must have a maker,\n        require(cfd.taker.addr == address(0));         // and no taker.\n        // require(takerAddress != cfd.maker.addr);       // Maker and Taker must not be the same address. (disabled for now)\n        require(msg.value == cfd.amount);              // Takers deposit must match makers deposit.\n        require(takerAddress != address(0));           // Taker must provide a non-zero address.\n        require(block.number <= cfd.contractEndBlock); // Taker must take contract before end block.\n\n        cfd.taker.addr = takerAddress;\n        // Make taker position the inverse of maker position\n        cfd.taker.position = cfd.maker.position == Position.Long ? Position.Short : Position.Long;\n        cfd.contractStartBlock = uint128(block.number);\n        cfd.isTaken = true;\n\n        emit LogTakeCfd(\n            cfdId,\n            cfd.maker.addr,\n            cfd.maker.position,\n            cfd.taker.addr,\n            cfd.taker.position,\n            cfd.assetId,\n            cfd.amount,\n            cfd.contractStartBlock,\n            cfd.contractEndBlock\n        );\n            \n        return true;\n    }\n\n    function settleAndWithdrawCfd(\n        uint128 cfdId\n        )\n        public {\n        address makerAddr = contracts[cfdId].maker.addr;\n        address takerAddr = contracts[cfdId].taker.addr;\n\n        settleCfd(cfdId);\n        withdraw(cfdId, makerAddr);\n        withdraw(cfdId, takerAddr);\n    }\n\n    function settleCfd(\n        uint128 cfdId\n        )\n        public\n        returns (bool success) {\n        Cfd storage cfd = contracts[cfdId];\n\n        require(cfd.contractEndBlock <= block.number); // Contract must have met its end time.\n        require(!cfd.isSettled);                       // Contract must not be settled already.\n        require(!cfd.isRefunded);                      // Contract must not be refunded.\n        require(cfd.isTaken);                          // Contract must be taken.\n        require(cfd.maker.addr != address(0));         // Contract must have a maker address.\n        require(cfd.taker.addr != address(0));         // Contract must have a taker address.\n\n        // Get relevant variables\n        uint128 amount = cfd.amount;\n        uint128 startPrice = priceOracle.getAssetPrice(cfd.assetId, cfd.contractStartBlock);\n        uint128 endPrice = priceOracle.getAssetPrice(cfd.assetId, cfd.contractEndBlock);\n\n        // Payout settlements to maker and taker\n        uint128 makerSettlement = getSettlementAmount(amount, startPrice, endPrice, cfd.maker.position);\n        if (makerSettlement > 0) { \n            cfd.maker.withdrawBalance = makerSettlement;\n        }\n        uint128 takerSettlement = getSettlementAmount(amount, startPrice, endPrice, cfd.taker.position);\n        if (takerSettlement > 0) {\n            cfd.taker.withdrawBalance = takerSettlement;\n        }\n\n        // Mark contract as settled.\n        cfd.isSettled = true;\n\n        emit LogCfdSettled (\n            cfdId,\n            cfd.maker.addr,\n            cfd.taker.addr,\n            amount,\n            startPrice,\n            endPrice,\n            makerSettlement,\n            takerSettlement\n        );\n\n        return true;\n    }\n\n    function withdraw(\n        uint128 cfdId, \n        address partyAddress\n    )\n    public {\n        Cfd storage cfd = contracts[cfdId];\n        Party storage party = partyAddress == cfd.maker.addr ? cfd.maker : cfd.taker;\n        require(party.withdrawBalance > 0);\n        uint128 amount = party.withdrawBalance;\n        party.withdrawBalance = 0;\n        party.addr.transfer(amount);\n\n        emit LogWithdrawal(\n            cfdId,\n            party.addr,\n            amount\n        );\n    }\n\n    function getSettlementAmount(\n        uint128 amountUInt,\n        uint128 entryPriceUInt,\n        uint128 exitPriceUInt,\n        Position position\n    )\n    public\n    view\n    returns (uint128) {\n        require(position == Position.Long || position == Position.Short);\n\n        // If price didn't change, settle for equal amount to long and short.\n        if (entryPriceUInt == exitPriceUInt) {return amountUInt;}\n\n        // If entry price is 0 and exit price is more than 0, all must go to long position and nothing to short.\n        if (entryPriceUInt == 0 && exitPriceUInt > 0) {\n            return position == Position.Long ? amountUInt * 2 : 0;\n        }\n\n        // Cast uint128 to int256 to support negative numbers and increase over- and underflow limits\n        int256 entryPrice = int256(entryPriceUInt);\n        int256 exitPrice = int256(exitPriceUInt);\n        int256 amount = int256(amountUInt);\n\n        // Price diff calc depends on which position we are calculating settlement for.\n        int256 priceDiff = position == Position.Long ? exitPrice.sub(entryPrice) : entryPrice.sub(exitPrice);\n        int256 settlement = amount.add(priceDiff.mul(amount).mul(leverage).div(entryPrice));\n        if (settlement < 0) {\n            return 0; // Calculated settlement was negative. But a party can't be lose more than his deposit, so he just gets 0 back.\n        } else if (settlement > amount * 2) {\n            return amountUInt * 2; // Calculated settlement was more than the total deposits, so settle for the total deposits.\n        } else {\n            return uint128(settlement); // Settlement was more than zero and less than sum of deposit amounts, so we can pay it out as is.\n        }\n    }\n\n    function refundCfd(\n        uint128 cfdId\n    )\n    public\n    returns (bool success) {\n        Cfd storage cfd = contracts[cfdId];\n        require(!cfd.isSettled);                       // Contract must not be settled already.\n        require(!cfd.isTaken);                         // Contract must not be taken.\n        require(cfd.maker.addr == msg.sender);         // Function caller must be the contract maker or contract Owner\n\n        cfd.maker.addr.transfer(cfd.amount);\n        cfd.isRefunded = true;\n\n        emit LogCfdRefunded(\n            cfdId,\n            cfd.maker.addr,\n            cfd.amount\n        );\n\n        return true;\n    }\n\n    function () public {\n        // dont receive ether via fallback method (by not having 'payable' modifier on this function).\n    }\n}",
  "sourcePath": "/Users/svantejorgensen/projects/cfd-dapp/contracts/ContractForDifference.sol",
  "compiler": {
    "name": "solc",
    "version": "0.4.24+commit.e67f0147.Emscripten.clang"
  },
  "schemaVersion": "2.0.0",
  "updatedAt": "2018-06-19T14:34:26.634Z"
}