{
  "contractName": "ContractForDifference",
  "abi": [
    {
      "constant": false,
      "inputs": [
        {
          "name": "owner_",
          "type": "address"
        }
      ],
      "name": "setOwner",
      "outputs": [],
      "payable": false,
      "stateMutability": "nonpayable",
      "type": "function"
    },
    {
      "constant": true,
      "inputs": [],
      "name": "priceOracle",
      "outputs": [
        {
          "name": "",
          "type": "address"
        }
      ],
      "payable": false,
      "stateMutability": "view",
      "type": "function"
    },
    {
      "constant": true,
      "inputs": [],
      "name": "leverage",
      "outputs": [
        {
          "name": "",
          "type": "uint128"
        }
      ],
      "payable": false,
      "stateMutability": "view",
      "type": "function"
    },
    {
      "constant": false,
      "inputs": [
        {
          "name": "authority_",
          "type": "address"
        }
      ],
      "name": "setAuthority",
      "outputs": [],
      "payable": false,
      "stateMutability": "nonpayable",
      "type": "function"
    },
    {
      "constant": true,
      "inputs": [],
      "name": "owner",
      "outputs": [
        {
          "name": "",
          "type": "address"
        }
      ],
      "payable": false,
      "stateMutability": "view",
      "type": "function"
    },
    {
      "constant": true,
      "inputs": [],
      "name": "authority",
      "outputs": [
        {
          "name": "",
          "type": "address"
        }
      ],
      "payable": false,
      "stateMutability": "view",
      "type": "function"
    },
    {
      "constant": true,
      "inputs": [
        {
          "name": "",
          "type": "uint128"
        }
      ],
      "name": "contracts",
      "outputs": [
        {
          "components": [
            {
              "name": "addr",
              "type": "address"
            },
            {
              "name": "withdrawBalance",
              "type": "uint128"
            },
            {
              "name": "position",
              "type": "uint8"
            },
            {
              "name": "isPaid",
              "type": "bool"
            }
          ],
          "name": "maker",
          "type": "tuple"
        },
        {
          "components": [
            {
              "name": "addr",
              "type": "address"
            },
            {
              "name": "withdrawBalance",
              "type": "uint128"
            },
            {
              "name": "position",
              "type": "uint8"
            },
            {
              "name": "isPaid",
              "type": "bool"
            }
          ],
          "name": "taker",
          "type": "tuple"
        },
        {
          "name": "assetId",
          "type": "uint128"
        },
        {
          "name": "amount",
          "type": "uint128"
        },
        {
          "name": "contractStartBlock",
          "type": "uint128"
        },
        {
          "name": "contractEndBlock",
          "type": "uint128"
        },
        {
          "name": "isTaken",
          "type": "bool"
        },
        {
          "name": "isSettled",
          "type": "bool"
        },
        {
          "name": "isRefunded",
          "type": "bool"
        }
      ],
      "payable": false,
      "stateMutability": "view",
      "type": "function"
    },
    {
      "constant": true,
      "inputs": [],
      "name": "numberOfContracts",
      "outputs": [
        {
          "name": "",
          "type": "uint128"
        }
      ],
      "payable": false,
      "stateMutability": "view",
      "type": "function"
    },
    {
      "inputs": [
        {
          "name": "priceOracleAddress",
          "type": "address"
        }
      ],
      "payable": false,
      "stateMutability": "nonpayable",
      "type": "constructor"
    },
    {
      "payable": false,
      "stateMutability": "nonpayable",
      "type": "fallback"
    },
    {
      "anonymous": false,
      "inputs": [
        {
          "indexed": true,
          "name": "cfdId",
          "type": "uint128"
        },
        {
          "indexed": true,
          "name": "makerAddress",
          "type": "address"
        },
        {
          "indexed": true,
          "name": "makerPosition",
          "type": "uint8"
        },
        {
          "indexed": false,
          "name": "assetId",
          "type": "uint128"
        },
        {
          "indexed": false,
          "name": "amount",
          "type": "uint128"
        },
        {
          "indexed": false,
          "name": "contractEndBlock",
          "type": "uint128"
        }
      ],
      "name": "LogMakeCfd",
      "type": "event"
    },
    {
      "anonymous": false,
      "inputs": [
        {
          "indexed": true,
          "name": "cfdId",
          "type": "uint128"
        },
        {
          "indexed": true,
          "name": "makerAddress",
          "type": "address"
        },
        {
          "indexed": false,
          "name": "makerPosition",
          "type": "uint8"
        },
        {
          "indexed": true,
          "name": "takerAddress",
          "type": "address"
        },
        {
          "indexed": false,
          "name": "takerPosition",
          "type": "uint8"
        },
        {
          "indexed": false,
          "name": "assetId",
          "type": "uint128"
        },
        {
          "indexed": false,
          "name": "amount",
          "type": "uint128"
        },
        {
          "indexed": false,
          "name": "contractStartBlock",
          "type": "uint128"
        },
        {
          "indexed": false,
          "name": "contractEndBlock",
          "type": "uint128"
        }
      ],
      "name": "LogTakeCfd",
      "type": "event"
    },
    {
      "anonymous": false,
      "inputs": [
        {
          "indexed": true,
          "name": "cfdId",
          "type": "uint128"
        },
        {
          "indexed": true,
          "name": "makerAddress",
          "type": "address"
        },
        {
          "indexed": true,
          "name": "takerAddress",
          "type": "address"
        },
        {
          "indexed": false,
          "name": "amount",
          "type": "uint128"
        },
        {
          "indexed": false,
          "name": "startPrice",
          "type": "uint128"
        },
        {
          "indexed": false,
          "name": "endPrice",
          "type": "uint128"
        },
        {
          "indexed": false,
          "name": "makerSettlement",
          "type": "uint128"
        },
        {
          "indexed": false,
          "name": "takerSettlement",
          "type": "uint128"
        }
      ],
      "name": "LogCfdSettled",
      "type": "event"
    },
    {
      "anonymous": false,
      "inputs": [
        {
          "indexed": true,
          "name": "cfdId",
          "type": "uint128"
        },
        {
          "indexed": true,
          "name": "makerAddress",
          "type": "address"
        },
        {
          "indexed": false,
          "name": "amount",
          "type": "uint128"
        }
      ],
      "name": "LogCfdRefunded",
      "type": "event"
    },
    {
      "anonymous": false,
      "inputs": [
        {
          "indexed": true,
          "name": "cfdId",
          "type": "uint128"
        },
        {
          "indexed": true,
          "name": "makerAddress",
          "type": "address"
        },
        {
          "indexed": false,
          "name": "makerAmount",
          "type": "uint128"
        },
        {
          "indexed": true,
          "name": "takerAddress",
          "type": "address"
        },
        {
          "indexed": false,
          "name": "takerAmount",
          "type": "uint128"
        }
      ],
      "name": "LogCfdForceRefunded",
      "type": "event"
    },
    {
      "anonymous": false,
      "inputs": [
        {
          "indexed": true,
          "name": "cfdId",
          "type": "uint128"
        },
        {
          "indexed": true,
          "name": "withdrawalAddress",
          "type": "address"
        },
        {
          "indexed": false,
          "name": "amount",
          "type": "uint128"
        }
      ],
      "name": "LogWithdrawal",
      "type": "event"
    },
    {
      "anonymous": false,
      "inputs": [
        {
          "indexed": true,
          "name": "authority",
          "type": "address"
        }
      ],
      "name": "LogSetAuthority",
      "type": "event"
    },
    {
      "anonymous": false,
      "inputs": [
        {
          "indexed": true,
          "name": "owner",
          "type": "address"
        }
      ],
      "name": "LogSetOwner",
      "type": "event"
    },
    {
      "constant": false,
      "inputs": [
        {
          "name": "makerAddress",
          "type": "address"
        },
        {
          "name": "assetId",
          "type": "uint128"
        },
        {
          "name": "makerPosition",
          "type": "uint8"
        },
        {
          "name": "contractEndBlock",
          "type": "uint128"
        }
      ],
      "name": "makeCfd",
      "outputs": [
        {
          "name": "",
          "type": "uint128"
        }
      ],
      "payable": true,
      "stateMutability": "payable",
      "type": "function"
    },
    {
      "constant": true,
      "inputs": [
        {
          "name": "cfdId",
          "type": "uint128"
        }
      ],
      "name": "getCfd",
      "outputs": [
        {
          "name": "makerAddress",
          "type": "address"
        },
        {
          "name": "makerPosition",
          "type": "uint8"
        },
        {
          "name": "takerAddress",
          "type": "address"
        },
        {
          "name": "takerPosition",
          "type": "uint8"
        },
        {
          "name": "assetId",
          "type": "uint128"
        },
        {
          "name": "amount",
          "type": "uint128"
        },
        {
          "name": "startTime",
          "type": "uint128"
        },
        {
          "name": "endTime",
          "type": "uint128"
        },
        {
          "name": "isTaken",
          "type": "bool"
        },
        {
          "name": "isSettled",
          "type": "bool"
        },
        {
          "name": "isRefunded",
          "type": "bool"
        }
      ],
      "payable": false,
      "stateMutability": "view",
      "type": "function"
    },
    {
      "constant": false,
      "inputs": [
        {
          "name": "cfdId",
          "type": "uint128"
        },
        {
          "name": "takerAddress",
          "type": "address"
        }
      ],
      "name": "takeCfd",
      "outputs": [
        {
          "name": "success",
          "type": "bool"
        }
      ],
      "payable": true,
      "stateMutability": "payable",
      "type": "function"
    },
    {
      "constant": false,
      "inputs": [
        {
          "name": "cfdId",
          "type": "uint128"
        }
      ],
      "name": "settleAndWithdrawCfd",
      "outputs": [],
      "payable": false,
      "stateMutability": "nonpayable",
      "type": "function"
    },
    {
      "constant": false,
      "inputs": [
        {
          "name": "cfdId",
          "type": "uint128"
        }
      ],
      "name": "settleCfd",
      "outputs": [
        {
          "name": "success",
          "type": "bool"
        }
      ],
      "payable": false,
      "stateMutability": "nonpayable",
      "type": "function"
    },
    {
      "constant": false,
      "inputs": [
        {
          "name": "cfdId",
          "type": "uint128"
        },
        {
          "name": "partyAddress",
          "type": "address"
        }
      ],
      "name": "withdraw",
      "outputs": [],
      "payable": false,
      "stateMutability": "nonpayable",
      "type": "function"
    },
    {
      "constant": true,
      "inputs": [
        {
          "name": "amountUInt",
          "type": "uint128"
        },
        {
          "name": "entryPriceUInt",
          "type": "uint128"
        },
        {
          "name": "exitPriceUInt",
          "type": "uint128"
        },
        {
          "name": "position",
          "type": "uint8"
        }
      ],
      "name": "getSettlementAmount",
      "outputs": [
        {
          "name": "",
          "type": "uint128"
        }
      ],
      "payable": false,
      "stateMutability": "view",
      "type": "function"
    },
    {
      "constant": false,
      "inputs": [
        {
          "name": "cfdId",
          "type": "uint128"
        }
      ],
      "name": "refundCfd",
      "outputs": [
        {
          "name": "success",
          "type": "bool"
        }
      ],
      "payable": false,
      "stateMutability": "nonpayable",
      "type": "function"
    },
    {
      "constant": false,
      "inputs": [
        {
          "name": "cfdId",
          "type": "uint128"
        }
      ],
      "name": "forceRefundCfd",
      "outputs": [],
      "payable": false,
      "stateMutability": "nonpayable",
      "type": "function"
    }
  ],
  "bytecode": "0x6080604052600280546001608060020a031916600117905534801561002357600080fd5b50604051602080611af0833981016040819052905160018054600160a060020a0319163390811790915590917fce241d7ca1f669fee44b6fc00b8eba2df3bb514eed0f6f668f8f89096e81ed9490600090a260038054600160a060020a031916600160a060020a0392909216919091179055611a4c806100a46000396000f3006080604052600436106100f05763ffffffff7c010000000000000000000000000000000000000000000000000000000060003504166313af403581146100ff57806319f2433a146101225780631d9b07831461017157806325476ed81461019e5780632630c12f146101bf5780632c86d98e146101f05780637193b1e41461020557806377a1e5ce1461023a5780637a9e5e4b146102675780638c934d71146102885780638da5cb5b146102a9578063bf7e214f146102be578063bf85cc27146102d3578063c2a926bd146102f4578063c435d68e1461036e578063c7a3765714610383578063e86bf26714610442575b3480156100fc57600080fd5b50005b34801561010b57600080fd5b50610120600160a060020a0360043516610462565b005b34801561012e57600080fd5b506101556001608060020a036004358116906024358116906044351660ff606435166104e0565b604080516001608060020a039092168252519081900360200190f35b34801561017d57600080fd5b506101206001608060020a0360043516600160a060020a036024351661065e565b3480156101aa57600080fd5b506101206001608060020a0360043516610794565b3480156101cb57600080fd5b506101d46107e4565b60408051600160a060020a039092168252519081900360200190f35b3480156101fc57600080fd5b506101556107f3565b34801561021157600080fd5b506102266001608060020a0360043516610802565b604080519115158252519081900360200190f35b610155600160a060020a03600435166001608060020a0360243581169060ff60443516906064351661095d565b34801561027357600080fd5b50610120600160a060020a0360043516610d8c565b34801561029457600080fd5b506101206001608060020a0360043516610e06565b3480156102b557600080fd5b506101d4610fd3565b3480156102ca57600080fd5b506101d4610fe2565b3480156102df57600080fd5b506102266001608060020a0360043516610ff1565b34801561030057600080fd5b506103156001608060020a0360043516611333565b60408051998a5260208a01989098526001608060020a039687168989015294861660608901529285166080880152931660a086015291151560c085015290151560e0840152151561010083015251908190036101200190f35b34801561037a57600080fd5b5061015561147f565b34801561038f57600080fd5b506103a46001608060020a036004351661148e565b604051600160a060020a038c168152602081018b60018111156103c357fe5b60ff168152600160a060020a038b1660208201526040018960018111156103e657fe5b60ff1681526001608060020a039889166020820152968816604080890191909152958816606088015250929095166080850152151560a084015292151560c083015291151560e082015290519081900361010001945092505050f35b6102266001608060020a0360043516600160a060020a036024351661151d565b61047833600035600160e060020a0319166117b3565b151561048357600080fd5b6001805473ffffffffffffffffffffffffffffffffffffffff1916600160a060020a0383811691909117918290556040519116907fce241d7ca1f669fee44b6fc00b8eba2df3bb514eed0f6f668f8f89096e81ed9490600090a250565b60008080808080808760018111156104f457fe5b148061050b5750600187600181111561050957fe5b145b151561051657600080fd5b876001608060020a0316896001608060020a0316141561053857899550610651565b6001608060020a03891615801561055857506000886001608060020a0316115b1561058357600087600181111561056b57fe5b1461057757600061057c565b896002025b9550610651565b6001608060020a03808a16955088811694508a16925060008760018111156105a757fe5b146105c1576105bc858563ffffffff6118bc16565b6105d1565b6105d1848663ffffffff6118bc16565b6002549092506106239061061690879061060a906001608060020a03166105fe878963ffffffff6118f516565b9063ffffffff6118f516565b9063ffffffff61192016565b849063ffffffff61197016565b905060008112156106375760009550610651565b8260020281131561064d57896002029550610651565b8095505b5050505050949350505050565b6001608060020a038216600090815260046020526040812080549091908190600160a060020a03858116911614610698578260020161069a565b825b600181015490925060006001608060020a03909116116106b957600080fd5b6001820154608860020a900460ff16156106d257600080fd5b5060018101805471ff00ffffffffffffffffffffffffffffffff198116608860020a1790915581546040516001608060020a0390921691600160a060020a039091169082156108fc029083906000818181858888f1935050505015801561073d573d6000803e3d6000fd5b508154604080516001608060020a0384811682529151600160a060020a0390931692918816917f47c4670fbd2d0f6a4f8570df20a107241367325b2d1a1040efa3907260c4b78f9181900360200190a35050505050565b6001608060020a03811660009081526004602052604090208054600290910154600160a060020a0391821691166107ca83610ff1565b506107d5838361065e565b6107df838261065e565b505050565b600354600160a060020a031681565b6002546001608060020a031681565b6001608060020a03811660009081526004602052604081206006810154610100900460ff161561083157600080fd5b600681015460ff161561084357600080fd5b600681015462010000900460ff161561085b57600080fd5b8054600160a060020a0316331461087157600080fd5b60068101805462ff000019166201000017905560018101805471ff00000000000000000000000000000000001916608860020a17905580546004820154604051600160a060020a03909216916001608060020a03608060020a9092049190911680156108fc02916000818181858888f193505050501580156108f7573d6000803e3d6000fd5b5080546004820154604080516001608060020a03608060020a909304831681529051600160a060020a0390931692918616917fb3c82f75b29bc253ce2bceed73a469995f7d1f6bcee3633ebc52fe83ca5d6975916020908290030190a350600192915050565b60008061096861199f565b61097061199f565b6109786119c7565b436001608060020a0387161161098d57600080fd5b6000341161099a57600080fd5b600160a060020a03891615156109af57600080fd5b60055460408051608081018252600160a060020a038c168152600060208201526001608060020a03909216955081018860018111156109ea57fe5b81526000602091820181905260408051608081018252828152928301829052929550909182019081526000602091820181905260408051610120810182528781528084018590526001608060020a038d8116828401523481166060830152608082018490528b811660a083015260c0820184905260e0820184905261010082018490528981168452600485529282902081518051825473ffffffffffffffffffffffffffffffffffffffff1916600160a060020a0390911617825594850151600180830180546fffffffffffffffffffffffffffffffff1916929096169190911780865593860151969850919650869590949385939192909170ff00000000000000000000000000000000191690608060020a908490811115610b0957fe5b0217905550606091909101516001918201805471ff00000000000000000000000000000000001916608860020a92151592909202919091179055602083810151805160028501805473ffffffffffffffffffffffffffffffffffffffff1916600160a060020a03909216919091178155918101516003850180546fffffffffffffffffffffffffffffffff19166001608060020a03909216919091178082556040830151929470ff000000000000000000000000000000001990911690608060020a908490811115610bd757fe5b021790555060609182015160019182018054911515608860020a0271ff00000000000000000000000000000000001990921691909117905560408481015160048086018054958801516001608060020a03908116608060020a9081029482166fffffffffffffffffffffffffffffffff199889161782169490941790915560808801516005808901805460a08c015185168702938516908a161784169290921790915560c08901516006909801805460e08b01516101009b8c01511515620100000262ff000019911515909c0261ff00199b151560ff19909316929092179a909a1617989098169890981790965586548087168501871695169490941790955592881660009081526020929092529190208101549190910460ff1690811115610cfc57fe5b6001608060020a0380861660008181526004602081815260409283902080549281015460059091015484518288168152608060020a9283900488169381019390935204909416848301529051600160a060020a03909116927ff856f785bff6e41ad784260baa2a846a4275c7ddaee2fc7d94ab0de7b7aa1d54919081900360600190a45091979650505050505050565b610da233600035600160e060020a0319166117b3565b1515610dad57600080fd5b6000805473ffffffffffffffffffffffffffffffffffffffff1916600160a060020a03838116919091178083556040519116917f1abebea81bfa2637f28358c371278fb15ede7ea8dd28d2e03b112ff6d936ada491a250565b600080610e1f33600035600160e060020a0319166117b3565b1515610e2a57600080fd5b6001608060020a0383166000908152600460205260409020600681015490925062010000900460ff1615610e5d57600080fd5b5060068101805462ff00001916620100001790556002810154600090600160a060020a031615610ef8575060048101546003820180546fffffffffffffffffffffffffffffffff191690556002820154604051608060020a9092046001608060020a031691600160a060020a03909116906108fc8315029083906000818181858888f19350505050158015610ef6573d6000803e3d6000fd5b505b6001820180546fffffffffffffffffffffffffffffffff1916905581546004830154604051600160a060020a0390921691608060020a9091046001608060020a031680156108fc02916000818181858888f19350505050158015610f60573d6000803e3d6000fd5b5060028201548254600484015460408051608060020a9092046001608060020a03908116835285811660208401528151600160a060020a03958616959490941693908816927f7af3dfd0954a90fc6d2e8b38337901a158f4cea2f6f4d47bd2a7cd4de230c11692908290030190a4505050565b600154600160a060020a031681565b600054600160a060020a031681565b6001608060020a0380821660009081526004602052604081206005810154919290918391829182918291829143608060020a90920416111561103257600080fd5b6006860154610100900460ff161561104957600080fd5b600686015462010000900460ff161561106157600080fd5b600686015460ff16151561107457600080fd5b8554600160a060020a0316151561108a57600080fd5b6002860154600160a060020a031615156110a357600080fd5b6004868101546003546005890154604080517fc289adfa0000000000000000000000000000000000000000000000000000000081526001608060020a0380861696820196909652918516602483015251608060020a9093049093169750600160a060020a03169163c289adfa9160448083019260209291908290030181600087803b15801561113157600080fd5b505af1158015611145573d6000803e3d6000fd5b505050506040513d602081101561115b57600080fd5b505160035460048089015460058a0154604080517fc289adfa0000000000000000000000000000000000000000000000000000000081526001608060020a0393841694810194909452608060020a909104909116602483015251929650600160a060020a039091169163c289adfa916044808201926020929091908290030181600087803b1580156111ec57600080fd5b505af1158015611200573d6000803e3d6000fd5b505050506040513d602081101561121657600080fd5b5051600387015490935061123990869086908690608060020a900460ff166104e0565b91506000826001608060020a03161115611274576003860180546fffffffffffffffffffffffffffffffff19166001608060020a0384161790555b506001850180546001608060020a0360028088028590038281166fffffffffffffffffffffffffffffffff19909416841790945560068901805461ff001916610100179055880154885460408051848b1681528985166020820152888516818301526060810195909552838716608086015251600160a060020a039283169491909216928c16917f73c87236e68a7ce8f26b10e6acb08e9ce4b67067e0255efeee93a69969c123919181900360a00190a4506001979650505050505050565b60046020908152600091825260409182902082516080810184528154600160a060020a031681526001808301546001608060020a0381169483019490945291939092849291840191608060020a90910460ff169081111561139057fe5b600181111561139b57fe5b815260019182015460ff608860020a9091048116151560209283015260408051608081018252600287018054600160a060020a0316825260038801546001608060020a038116958301959095529596959094909391850192608060020a9092049091169081111561140857fe5b600181111561141357fe5b81526001919091015460ff608860020a909104811615156020909201919091526004830154600584015460069094015492936001608060020a0380831694608060020a938490048216948383169490930490911691818116916101008104821691620100009091041689565b6005546001608060020a031681565b6001608060020a0390811660009081526004602081905260409091208054600182015460028301546003840154948401546005850154600690950154600160a060020a039485169860ff608060020a9586900481169996909416978590048416968387169693869004841695818516959104909316928083169261010081048216926201000090910490911690565b6001608060020a0382166000908152600460205260408120600681015460ff1615156001141561154c57600080fd5b600681015460ff6101009091041615156001141561156957600080fd5b600681015462010000900460ff1615156001141561158657600080fd5b8054600160a060020a0316151561159c57600080fd5b6002810154600160a060020a0316156115b457600080fd5b6004810154608060020a90046001608060020a031634146115d457600080fd5b600160a060020a03831615156115e957600080fd5b6005810154608060020a90046001608060020a031643111561160a57600080fd5b60028101805473ffffffffffffffffffffffffffffffffffffffff1916600160a060020a0385161790556000600182810154608060020a900460ff169081111561165057fe5b1461165c57600061165f565b60015b60038201805470ff000000000000000000000000000000001916608060020a83600181111561168a57fe5b02179055506005810180546fffffffffffffffffffffffffffffffff1916436001608060020a03908116919091179182905560068301805460ff19166001908117909155600284015484548286015460038701546004880154604051600160a060020a039586169895909416968c8116967f1b7c442c83e115e252e37688061982359c47114bd778470e3b755c9cc95781209660ff608060020a968790048116979587900416958484169594819004841694828516949190920416918190889081111561175357fe5b60ff16815260200186600181111561176757fe5b60ff1681526001608060020a039586166020820152938516604080860191909152928516606085015250909216608082015290519081900360a00192509050a4600191505b5092915050565b6000600160a060020a0383163014156117ce575060016118b6565b600154600160a060020a03848116911614156117ec575060016118b6565b600054600160a060020a03161515611806575060006118b6565b60008054604080517fb7009613000000000000000000000000000000000000000000000000000000008152600160a060020a038781166004830152306024830152600160e060020a0319871660448301529151919092169263b700961392606480820193602093909283900390910190829087803b15801561188757600080fd5b505af115801561189b573d6000803e3d6000fd5b505050506040513d60208110156118b157600080fd5b505190505b92915050565b60008183038183128015906118d15750838113155b806118e657506000831280156118e657508381135b15156118ee57fe5b9392505050565b60008083151561190857600091506117ac565b5082820282848281151561191857fe5b05146118ee57fe5b60007f8000000000000000000000000000000000000000000000000000000000000000838114158061195457508260001914155b151561195c57fe5b828481151561196757fe5b05949350505050565b60008282018183128015906119855750838112155b806118e657506000831280156118e657508381126118ee57fe5b6040805160808101825260008082526020820181905290918201908152600060209091015290565b6101e0604051908101604052806119dc61199f565b81526020016119e961199f565b815260006020820181905260408201819052606082018190526080820181905260a0820181905260c0820181905260e090910152905600a165627a7a72305820a6e9cfb5df25b150c8e3efbd3f4205598e687ae26f7363c3efc08e3564afeea10029",
  "source": "pragma solidity 0.4.24;\n\nimport \"./ds-auth/auth.sol\"; // @see https://dappsys.readthedocs.io/en/latest/ds_auth.html\nimport \"./AssetPriceOracle.sol\";\nimport \"./lib/SafeMath.sol\";\n\ncontract ContractForDifference is DSAuth {\n    using SafeMath for int256;\n\n    enum Position { Long, Short }\n    \n    /**\n     * A party to the contract. Either the maker or the taker.\n     */\n    struct Party {\n        address addr;\n        uint128 withdrawBalance; // Amount the Party can withdraw, as a result of settled contract.\n        Position position;\n        bool isPaid;\n    }\n    \n    struct Cfd {\n        Party maker;\n        Party taker;\n\n        uint128 assetId;\n        uint128 amount; // in Wei.\n        uint128 contractStartBlock; // Block number\n        uint128 contractEndBlock; // Block number\n\n        // CFD state variables\n        bool isTaken;\n        bool isSettled;\n        bool isRefunded;\n    }\n\n    uint128 public leverage = 1; // Global leverage of the CFD contract.\n    AssetPriceOracle public priceOracle;\n\n    mapping(uint128 => Cfd) public contracts;\n    uint128                 public numberOfContracts;\n\n    event LogMakeCfd (\n    uint128 indexed cfdId, \n    address indexed makerAddress, \n    Position indexed makerPosition,\n    uint128 assetId,\n    uint128 amount,\n    uint128 contractEndBlock);\n\n    event LogTakeCfd (\n    uint128 indexed cfdId,\n    address indexed makerAddress,\n    Position makerPosition,\n    address indexed takerAddress,\n    Position takerPosition,\n    uint128 assetId,\n    uint128 amount,\n    uint128 contractStartBlock,\n    uint128 contractEndBlock);\n\n    event LogCfdSettled (\n    uint128 indexed cfdId,\n    address indexed makerAddress,\n    address indexed takerAddress,\n    uint128 amount,\n    uint128 startPrice,\n    uint128 endPrice,\n    uint128 makerSettlement,\n    uint128 takerSettlement);\n\n    event LogCfdRefunded (\n    uint128 indexed cfdId,\n    address indexed makerAddress,\n    uint128 amount);\n\n    event LogCfdForceRefunded (\n    uint128 indexed cfdId,\n    address indexed makerAddress,\n    uint128 makerAmount,\n    address indexed takerAddress,\n    uint128 takerAmount);\n\n    event LogWithdrawal (\n    uint128 indexed cfdId,\n    address indexed withdrawalAddress,\n    uint128 amount);\n\n    // event Debug (\n    //     string description,\n    //     uint128 uintValue,\n    //     int128 intValue\n    // );\n\n    constructor(address priceOracleAddress) public {\n        priceOracle = AssetPriceOracle(priceOracleAddress);\n    }\n\n    function makeCfd(\n        address makerAddress,\n        uint128 assetId,\n        Position makerPosition,\n        uint128 contractEndBlock\n        )\n        public\n        payable\n        returns (uint128)\n    {\n        require(contractEndBlock > block.number); // Contract end block must be after current block.\n        require(msg.value > 0); // Contract Wei amount must be more than zero - contracts for zero Wei does not make sense.\n        require(makerAddress != address(0)); // Maker must provide a non-zero address.\n        \n        uint128 contractId = numberOfContracts;\n\n        /**\n         * Initialize CFD struct using tight variable packing pattern.\n         * See https://fravoll.github.io/solidity-patterns/tight_variable_packing.html\n         */\n        Party memory maker = Party(makerAddress, 0, makerPosition, false);\n        Party memory taker = Party(address(0), 0, Position.Long, false);\n        Cfd memory newCfd = Cfd(\n            maker,\n            taker,\n            assetId,\n            uint128(msg.value),\n            0,\n            contractEndBlock,\n            false,\n            false,\n            false\n        );\n\n        contracts[contractId] = newCfd;\n\n        // contracts[contractId].maker.addr = makerAddress;\n        // contracts[contractId].maker.position = makerPosition;\n        // contracts[contractId].assetId = assetId;\n        // contracts[contractId].amount = uint128(msg.value);\n        // contracts[contractId].contractEndBlock = contractEndBlock;\n\n        numberOfContracts++;\n        \n        emit LogMakeCfd(\n            contractId,\n            contracts[contractId].maker.addr,\n            contracts[contractId].maker.position,\n            contracts[contractId].assetId,\n            contracts[contractId].amount,\n            contracts[contractId].contractEndBlock\n        );\n\n        return contractId;\n    }\n\n    function getCfd(\n        uint128 cfdId\n        ) \n        public \n        view \n        returns (address makerAddress, Position makerPosition, address takerAddress, Position takerPosition, uint128 assetId, uint128 amount, uint128 startTime, uint128 endTime, bool isTaken, bool isSettled, bool isRefunded)\n        {\n        Cfd storage cfd = contracts[cfdId];\n        return (\n            cfd.maker.addr,\n            cfd.maker.position,\n            cfd.taker.addr,\n            cfd.taker.position,\n            cfd.assetId,\n            cfd.amount,\n            cfd.contractStartBlock,\n            cfd.contractEndBlock,\n            cfd.isTaken,\n            cfd.isSettled,\n            cfd.isRefunded\n        );\n    }\n\n    function takeCfd(\n        uint128 cfdId, \n        address takerAddress\n        ) \n        public\n        payable\n        returns (bool success) {\n        Cfd storage cfd = contracts[cfdId];\n        \n        require(cfd.isTaken != true);                  // Contract must not be taken.\n        require(cfd.isSettled != true);                // Contract must not be settled.\n        require(cfd.isRefunded != true);               // Contract must not be refunded.\n        require(cfd.maker.addr != address(0));         // Contract must have a maker,\n        require(cfd.taker.addr == address(0));         // and no taker.\n        // require(takerAddress != cfd.maker.addr);       // Maker and Taker must not be the same address. (disabled for now)\n        require(msg.value == cfd.amount);              // Takers deposit must match makers deposit.\n        require(takerAddress != address(0));           // Taker must provide a non-zero address.\n        require(block.number <= cfd.contractEndBlock); // Taker must take contract before end block.\n\n        cfd.taker.addr = takerAddress;\n        // Make taker position the inverse of maker position\n        cfd.taker.position = cfd.maker.position == Position.Long ? Position.Short : Position.Long;\n        cfd.contractStartBlock = uint128(block.number);\n        cfd.isTaken = true;\n\n        emit LogTakeCfd(\n            cfdId,\n            cfd.maker.addr,\n            cfd.maker.position,\n            cfd.taker.addr,\n            cfd.taker.position,\n            cfd.assetId,\n            cfd.amount,\n            cfd.contractStartBlock,\n            cfd.contractEndBlock\n        );\n            \n        return true;\n    }\n\n    function settleAndWithdrawCfd(\n        uint128 cfdId\n        )\n        public {\n        address makerAddr = contracts[cfdId].maker.addr;\n        address takerAddr = contracts[cfdId].taker.addr;\n\n        settleCfd(cfdId);\n        withdraw(cfdId, makerAddr);\n        withdraw(cfdId, takerAddr);\n    }\n\n    function settleCfd(\n        uint128 cfdId\n        )\n        public\n        returns (bool success) {\n        Cfd storage cfd = contracts[cfdId];\n\n        require(cfd.contractEndBlock <= block.number); // Contract must have met its end time.\n        require(!cfd.isSettled);                       // Contract must not be settled already.\n        require(!cfd.isRefunded);                      // Contract must not be refunded.\n        require(cfd.isTaken);                          // Contract must be taken.\n        require(cfd.maker.addr != address(0));         // Contract must have a maker address.\n        require(cfd.taker.addr != address(0));         // Contract must have a taker address.\n\n        // Get relevant variables\n        uint128 amount = cfd.amount;\n        uint128 startPrice = priceOracle.getAssetPrice(cfd.assetId, cfd.contractStartBlock);\n        uint128 endPrice = priceOracle.getAssetPrice(cfd.assetId, cfd.contractEndBlock);\n\n        /**\n         * Register settlements for maker and taker.\n         * Maker recieves any leftover wei from integer division.\n         */\n        uint128 takerSettlement = getSettlementAmount(amount, startPrice, endPrice, cfd.taker.position);\n        if (takerSettlement > 0) {\n            cfd.taker.withdrawBalance = takerSettlement;\n        }\n\n        uint128 makerSettlement = (amount * 2) - takerSettlement;\n        cfd.maker.withdrawBalance = makerSettlement;\n\n        // Mark contract as settled.\n        cfd.isSettled = true;\n\n        emit LogCfdSettled (\n            cfdId,\n            cfd.maker.addr,\n            cfd.taker.addr,\n            amount,\n            startPrice,\n            endPrice,\n            makerSettlement,\n            takerSettlement\n        );\n\n        return true;\n    }\n\n    function withdraw(\n        uint128 cfdId, \n        address partyAddress\n    )\n    public {\n        Cfd storage cfd = contracts[cfdId];\n        Party storage party = partyAddress == cfd.maker.addr ? cfd.maker : cfd.taker;\n        require(party.withdrawBalance > 0); // The party must have a withdraw balance from previous settlement.\n        require(!party.isPaid); // The party must have already been paid out, fx from a refund.\n        \n        uint128 amount = party.withdrawBalance;\n        party.withdrawBalance = 0;\n        party.isPaid = true;\n        \n        party.addr.transfer(amount);\n\n        emit LogWithdrawal(\n            cfdId,\n            party.addr,\n            amount\n        );\n    }\n\n    function getSettlementAmount(\n        uint128 amountUInt,\n        uint128 entryPriceUInt,\n        uint128 exitPriceUInt,\n        Position position\n    )\n    public\n    view\n    returns (uint128) {\n        require(position == Position.Long || position == Position.Short);\n\n        // If price didn't change, settle for equal amount to long and short.\n        if (entryPriceUInt == exitPriceUInt) {return amountUInt;}\n\n        // If entry price is 0 and exit price is more than 0, all must go to long position and nothing to short.\n        if (entryPriceUInt == 0 && exitPriceUInt > 0) {\n            return position == Position.Long ? amountUInt * 2 : 0;\n        }\n\n        // Cast uint128 to int256 to support negative numbers and increase over- and underflow limits\n        int256 entryPrice = int256(entryPriceUInt);\n        int256 exitPrice = int256(exitPriceUInt);\n        int256 amount = int256(amountUInt);\n\n        // Price diff calc depends on which position we are calculating settlement for.\n        int256 priceDiff = position == Position.Long ? exitPrice.sub(entryPrice) : entryPrice.sub(exitPrice);\n        int256 settlement = amount.add(priceDiff.mul(amount).mul(leverage).div(entryPrice));\n        if (settlement < 0) {\n            return 0; // Calculated settlement was negative. But a party can't lose more than his deposit, so he's just awarded 0.\n        } else if (settlement > amount * 2) {\n            return amountUInt * 2; // Calculated settlement was more than the total deposits, so settle for the total deposits.\n        } else {\n            return uint128(settlement); // Settlement was more than zero and less than sum of deposit amounts, so we can settle it as is.\n        }\n    }\n\n    function refundCfd(\n        uint128 cfdId\n    )\n    public\n    returns (bool success) {\n        Cfd storage cfd = contracts[cfdId];\n        require(!cfd.isSettled);                // Contract must not be settled already.\n        require(!cfd.isTaken);                  // Contract must not be taken.\n        require(!cfd.isRefunded);               // Contract must not be refunded already.\n        require(msg.sender == cfd.maker.addr);  // Function caller must be the contract maker.\n\n        cfd.isRefunded = true;\n        cfd.maker.isPaid = true;\n        cfd.maker.addr.transfer(cfd.amount);\n\n        emit LogCfdRefunded(\n            cfdId,\n            cfd.maker.addr,\n            cfd.amount\n        );\n\n        return true;\n    }\n\n    function forceRefundCfd(\n        uint128 cfdId\n    )\n    public\n    auth\n    {\n        Cfd storage cfd = contracts[cfdId];\n        require(!cfd.isRefunded); // Contract must not be refunded already.\n\n        cfd.isRefunded = true;\n\n        // Refund Taker\n        uint128 takerAmount = 0;\n        if (cfd.taker.addr != address(0)) {\n            takerAmount = cfd.amount;\n            cfd.taker.withdrawBalance = 0; // Refunding must reset withdraw balance, if any.\n            cfd.taker.addr.transfer(cfd.amount);\n        }\n\n        // Refund Maker\n        cfd.maker.withdrawBalance = 0; // Refunding must reset withdraw balance, if any.\n        cfd.maker.addr.transfer(cfd.amount);\n        \n        emit LogCfdForceRefunded(\n            cfdId,\n            cfd.maker.addr,\n            cfd.amount,\n            cfd.taker.addr,\n            takerAmount\n        );\n    } \n\n    function () public {\n        // dont receive ether via fallback method (by not having 'payable' modifier on this function).\n    }\n}",
  "sourcePath": "/Users/svantejorgensen/projects/cfd-dapp/contracts/ContractForDifference.sol",
  "compiler": {
    "name": "solc",
    "version": "0.4.24+commit.e67f0147.Emscripten.clang"
  },
  "schemaVersion": "2.0.1",
  "updatedAt": "2018-06-26T13:35:38.648Z"
}